{
  "contractName": "Factorial",
  "abi": [
    {
      "inputs": [
        {
          "internalType": "uint256",
          "name": "n",
          "type": "uint256"
        }
      ],
      "name": "getFactorial",
      "outputs": [
        {
          "internalType": "uint256",
          "name": "",
          "type": "uint256"
        }
      ],
      "stateMutability": "pure",
      "type": "function",
      "constant": true
    }
  ],
  "bytecode": "0x608060405234801561001057600080fd5b5061023a806100206000396000f3fe608060405234801561001057600080fd5b506004361061002b5760003560e01c80638235841414610030575b600080fd5b61004a600480360381019061004591906100db565b610060565b6040516100579190610117565b60405180910390f35b600080600190506000600190505b8381116100965780826100819190610161565b9150808061008e906101bb565b91505061006e565b5080915050919050565b600080fd5b6000819050919050565b6100b8816100a5565b81146100c357600080fd5b50565b6000813590506100d5816100af565b92915050565b6000602082840312156100f1576100f06100a0565b5b60006100ff848285016100c6565b91505092915050565b610111816100a5565b82525050565b600060208201905061012c6000830184610108565b92915050565b7f4e487b7100000000000000000000000000000000000000000000000000000000600052601160045260246000fd5b600061016c826100a5565b9150610177836100a5565b9250817fffffffffffffffffffffffffffffffffffffffffffffffffffffffffffffffff04831182151516156101b0576101af610132565b5b828202905092915050565b60006101c6826100a5565b91507fffffffffffffffffffffffffffffffffffffffffffffffffffffffffffffffff8214156101f9576101f8610132565b5b60018201905091905056fea26469706673582212205c01954889d7a96212911092b8da4e570a14736124419b9a40268be6bd70c4cd64736f6c634300080b0033",
  "immutableReferences": {},
  "source": "// SPDX-License-Identifier: MIT\r\npragma solidity >=0.4.22 <0.9.0;\r\n\r\ncontract Factorial {\r\n   function getFactorial(uint n) public pure returns(uint256){\r\n        uint256 f=1;\r\n        for(uint i=1;i<=n;i++)\r\n            {\r\n            f=f*i;\r\n            }\r\n            return f;\r\n     }\r\n}\r\n",
  "sourcePath": "C:\\Users\\anton\\Desktop\\Solidity.v.01\\SimpleContract\\contracts\\Factorial.sol",
  "compiler": {
    "name": "solc",
    "version": "0.8.11+commit.d7f03943.Emscripten.clang"
  },
  "schemaVersion": "3.4.4",
  "updatedAt": "2022-02-07T02:50:31.226Z",
  "networkType": "ethereum",
  "devdoc": {
    "kind": "dev",
    "methods": {},
    "version": 1
  },
  "userdoc": {
    "kind": "user",
    "methods": {},
    "version": 1
  }
}